:020000040800F2
:10000000F0040020A90100087D310008C527000880
:100010007931000881090008C93500080000000096
:10002000000000000000000000000000F1310008A6
:100030008509000800000000ED3100084932000881
:10004000C3010008C3010008C3010008C301000880
:10005000C3010008C3010008C3010008C301000870
:10006000C3010008C3010008C3010008C301000860
:10007000C3010008C3010008C3010008C301000850
:10008000C3010008C3010008C3010008000000000C
:10009000000000000000000000000000C301000894
:1000A000C3010008C3010008C3010008C301000820
:1000B000C3010008C3010008C3010008C301000810
:1000C000C3010008C3010008C3010008C301000800
:1000D000C3010008C3010008C301000800000000BC
:1000E000C3010008C3010008C301000800000000AC
:1000F000000000000000000000000000C301000834
:1001000000000000C3010008C3010008C30100088B
:1001100000000000000000000000000000000000DF
:10012000C3010008C3010008C3010008C30100089F
:10013000C3010008000000000000000000000000F3
:10014000000000000000000000000000C3010008E3
:10015000C3010008C3010008C3010008C30100086F
:10016000C3010008C30100080000000000000000F7
:10017000000000000000000000000000000000007F
:1001800000000000C30100080000000000000000A3
:10019000C3010008DFF80CD000F024FB0048004742
:1001A0007D490008F00400200648804706480047C3
:1001B000FEE7FEE7FEE7FEE7FEE7FEE7FEE7FEE717
:1001C000FEE7FEE709330008950100082DE9F05F1E
:1001D0000546002092469B468846064681464024B6
:1001E0001BE0284641464746224600F015FA534692
:1001F0005A46C01A914110D311461846224600F0C3
:10020000FCF92D1A67EB01084F4622460120002118
:1002100000F0F3F917EB00094E41201EA4F1010490
:10022000DFDC484631462A464346BDE8F09FD2B25D
:1002300001E000F8012B491EFBD270470022F6E7CF
:1002400010B513460A4604461946FFF7F0FF20464C
:1002500010BD421C10F8011B0029FBD1801A704709
:100260002DE9FE4F804681EA0300C00F0C46009046
:1002700021F0004123F00045B8EB0200A94105D26E
:100280004046214690461C460B46024623F000405D
:10029000104347D0270DC7F30A00C3F30A51029059
:1002A000401A019040286BDAC3F3130040F4801B1E
:1002B0000098924620B10023D2EB030A63EB0B0BAC
:1002C00001985946C0F14002504600F096F90646A2
:1002D0000D4650465946019A00F0AEF910EB080061
:1002E0006141002487EA115284EAE7731A4340D03F
:1002F000009A62B3019A012A4FEA075215DC001BEB
:1003000061EB02014FF0004202EA0752CDE90042E0
:10031000001C41F5801132462B4600F0E5F903B090
:10032000BDE8F08F40462146F9E7001B61EB020172
:10033000001C41F5801300185B412018A2F500173E
:1003400047EB030140EAD570B6196D4111E06D0825
:100350004FEA360645EAC0754FEA0752001B61EBCB
:100360000201001C41F5801149084FEA30000019D4
:10037000514132462B4603B0BDE8F04F00F0A5B91D
:100380000098012240000023D0EB020263EBE073EF
:10039000009821464FEAE074B8EB000061EB0401DD
:1003A000E9E783F000435BE781F0004158E72DE97E
:1003B000FE4F81EA030404F0004421F00041009460
:1003C0004FF0000B23F0004350EA01045ED052EAE4
:1003D00003045BD0C3F30A54C1F30A552C44A4F2BE
:1003E000F3340194A0FB0254C1F3130141F48011D2
:1003F000C3F3130343F4801301FB024400FB034ED9
:10040000840A970A44EA815447EA8357A4FB0768A1
:1004100002958D0A05FB07854FEA932C04FB0C54CB
:100420002705029D4FEA065847EA1637B5EB08053F
:100430006EEB070C870E920E47EA811742EA831291
:10044000A7FB0201B6EB0B0164EB00042B0D43EAA2
:100450000C335E1844EB1C50DA465146E7FB0201B0
:10046000C5F313044FEA0B3343EA14534FEA043243
:10047000019C43EA0603A4F10C040294009CCDE91C
:1004800000B400F031F903B0BDE8F08F0020014660
:10049000F9E72DE9F04D81EA030404F0004B21F067
:1004A000004514464FF0000A23F0004150EA0502CF
:1004B00020D054EA01021DD0C5F30A570246C5F305
:1004C0001303C1F31300C1F30A5640F4801543F43B
:1004D0008013A7EB0608101BD64608F2FD3873EB15
:1004E000050002D308F1010801E092185B41B8F160
:1004F000000F03DA00200146BDE8F08D00204FF424
:100500008011064684460EE0171B73EB050705D3E2
:10051000121B63EB050306434CEA010C49084FEA42
:10052000300092185B4150EA0107EDD152EA030016
:1005300012D082EA040083EA0501084305D0101BAB
:10054000AB4106D20122002306E000224FF0004317
:1005500002E06FF0010253101AEB06004CEB085159
:1005600010EB0A0041EB0B01BDE8F04D00F0ADB817
:1005700000F0004230F000400AD0C10D01F560717A
:10058000C0F3160042EA0151C20840071143704708
:1005900000200146704701F0004330B421F00041D3
:1005A00050EA010206D00A0DA2F56072C1F31301F0
:1005B000002A02DC30BC00207047440F44EAC1042A
:1005C000C100E01830BC00EBC25000F047B830B5B5
:1005D0000B46014600202022012409E021FA02F501
:1005E0009D4205D303FA02F5491B04FA02F528449B
:1005F000151EA2F10102F1DC30BD202A04DB203AF5
:1006000000FA02F1002070479140C2F1200320FA65
:1006100003F3194390407047202A04DB203A21FA63
:1006200002F00021704721FA02F3D040C2F120020B
:100630009140084319467047202A06DBCB17203A21
:1006400041FA02F043EAE07306E041FA02F3D040D7
:10065000C2F1200291400843194670470029A8BF03
:100660007047401C490008BF20F00100704710B4DB
:10067000B0FA80FC00FA0CF050EA010404BF10BC90
:10068000704749B1CCF1200421FA04F411FA0CF1BD
:1006900018BF012121430843A3EB0C01CB1D4FEAF6
:1006A00000614FEA102042BF002010BC704700EBF1
:1006B000C35010440029A4BF10BC7047401C49001F
:1006C00008BF20F0010010BC704710B5141E73F174
:1006D000000408DA401C41F1000192185B411A4302
:1006E00001D120F0010010BD2DE9F04D92469B464E
:1006F00011B1B1FA81F202E0B0FA80F220329046F4
:10070000FFF77BFF04460F4640EA0A0041EA0B016F
:1007100053465A46084313D0114653EA010019D0F4
:10072000C8F140025046FFF777FF05460E46504697
:1007300059464246FFF761FF084305D0012004E017
:1007400020463946BDE8F08D0020054346EAE076B4
:100750002C4337430A986305E40AA0EB0800002203
:10076000FD0A44EA47540A3002D500200146E9E771
:10077000010510196941DDE9084500196941BDE825
:10078000F04DA2E7C1F30A52C1F3130140F2FF3367
:1007900041F480119A4202DA00200146704740F28B
:1007A00033439A42A2F2334202DC5242FFF734BF93
:1007B000FFF723BF30B5041E71F1000404DB4FF0D6
:1007C0000044404264EB0101141E73F1000405DB98
:1007D0001C464FF00043524263EB0403994208BFAA
:1007E000904230BD1CB5094800900948019005466B
:1007F000009C06E0E06840F0010394E80700984799
:100800001034AC42F6D3FFF7C9FC0000B85300081F
:10081000D853000880B590B08DF83F008DF83E1099
:100820000E928DF83730002003908DF836000C9032
:100830000B900A90099008900790069005908DF80B
:1008400013009DF83E008DF81400FFE79DF83F006F
:10085000410040F24C00C2F200000322642300F089
:10086000DBFB08B1FFE7F1E79DF83F0040009DF892
:100870003E209DF837106B464FF0640CC3F808C05B
:10088000596005A91960C1B240F24C00C2F20000E3
:10089000012300F009FD8DF836009DF8360020B1E7
:1008A000FFE74FF0FF300C90FFE700208DF81300BA
:1008B000FFE79DF813009DF8371088420DDAFFE737
:1008C0009DF8132005A8805C0E998854FFE79DF8D9
:1008D000130001308DF81300EBE79DF9300010B0E4
:1008E00080BD000080B588B08DF81F008DF81E1007
:1008F00006928DF8173000208DF816000490FFE75F
:100900009DF81F004000C1B240F24C00C2F200004E
:100910000322642300F080FB08B1FFE7F0E79DF8B5
:100920001F0040009DF81E209DF817106B464FF0E9
:10093000640CC3F808C0596006A91960C1B240F23E
:100940004C00C2F20000012300F0D2FE8DF8160028
:100950009DF8160020B1FFE74FF0FF300490FFE74D
:100960009DF9100008B080BD80B582B0019001985B
:1009700000EB8000400000F00BF802B080BD0000EA
:10098000FFE7FEE77047000072B6FFE7FEE70000F2
:1009900080B584B0039000F0E7F9029003980190CD
:1009A0000198013048B1FFE740F20400C2F20000B4
:1009B0000178019808440190FFE7FFE700F0D4F9BF
:1009C0000299401A0199884201D2FFE7F6E704B084
:1009D00080BD00008BB00A9009910020079006901E
:1009E00005900890FFE708980F2800F2A281FFE722
:1009F00008990120884007900998006807990840E5
:100A0000069006980799884240F08E81FFE7099882
:100A1000406800F00300012807D0FFE7099840680C
:100A200000F0030002282FD1FFE70A9880680590A4
:100A300008984100032000FA01F1059888430590C9
:100A40000998C0680899490000FA01F1059808431F
:100A5000059005980A9988600A9840680590089959
:100A6000012000FA01F10598884305900998406833
:100A7000C0F30010089900FA01F1059808430590A9
:100A800005980A994860FFE70998406800F003005C
:100A9000032818D0FFE70A98C0680590089841001D
:100AA000032000FA01F105988843059009988068B1
:100AB0000899490000FA01F1059808430590059846
:100AC0000A99C860FFE70998406800F0030002280F
:100AD00026D1FFE70A9808996FF0030202EA510154
:100AE0000844006A0590089800F0070081000F2074
:100AF00000FA01F105988843059009980069089962
:100B000001F00701890000FA01F1059808430590FA
:100B100005980A99089B02EA530211440862FFE70C
:100B20000A980068059008984100032000FA01F136
:100B30000598884305900998406800F003000899DB
:100B4000490000FA01F105980843059005980A99B3
:100B50000860099880798007002800F0E480FFE7AA
:100B6000FFE70020049043F64400C4F2020001684D
:100B700041F480410160006800F4804004900498D2
:100B8000FFE7089820F0030043F60801C4F20101D2
:100B900040580590089800F0030081000F2000FAEB
:100BA00001F10598884305900A980021C4F20201DA
:100BB000884203D1FFE70020039034E00A9840F216
:100BC0000041C4F20201884203D1FFE701200290F4
:100BD00026E00A9840F60001C4F20201884203D1DF
:100BE000FFE70220019018E00A9840F60041C4F2A5
:100BF0000201884203D1FFE7032000900AE00A992E
:100C000041F20002C4F202020720914208BF042010
:100C10000090FFE700980190FFE701980290FFE73E
:100C200002980390FFE70398C0B2089901F003010E
:100C3000890000FA01F10598084305900598089984
:100C400021F0030143F60802C4F20102885043F682
:100C50000840C4F201000068059006990598884391
:100C6000059009988079C006002805D5FFE7069908
:100C7000059808430590FFE7059843F60841C4F23C
:100C80000101086043F60C40C4F2010000680590C1
:100C90000699059888430590099880798006002870
:100CA00005D5FFE70699059808430590FFE70598E5
:100CB00043F60C41C4F20101086043F60440C4F25B
:100CC00001000068059006990598884305900998E9
:100CD00080798007002805D5FFE706990598084325
:100CE0000590FFE7059843F60441C4F2010108604E
:100CF00043F60040C4F2010000680590069905988B
:100D00008843059009988079C00728B1FFE70699C4
:100D1000059808430590FFE7059843F60041C4F2A3
:100D200001010860FFE7FFE7FFE70898013008903E
:100D300059E60BB07047000082B00190ADF8021088
:100D40008DF801209DF8010028B1FFE7BDF80200F1
:100D50000199886105E0BDF80200000401998861ED
:100D6000FFE702B07047000040F2EC00C2F2000062
:100D70000068704780B58EB00C900C9820B9FFE7E2
:100D800001208DF8370043E10C9890F83D0040B900
:100D9000FFE70C99002081F83C000C9800F0B2FDB0
:100DA000FFE70C99242081F83D000C980168086841
:100DB00020F0010008600C980168086840F40040C9
:100DC00008600C980168086820F40040086000F092
:100DD000CBFF0A900C98406848F2A061C0F2010174
:100DE00088420BD8FFE70A9948F28042C0F21E02FF
:100DF0000020914238BF012009900AE00A9940F68C
:100E00000012C0F23D020020914238BF012009903B
:100E1000FFE70998012804D1FFE701208DF837008A
:100E2000F6E00A984DF68361C4F21B31A0FB011075
:100E3000800C0B900C980068406820F03F000B99E4
:100E400008430C99096848600C980068006A20F013
:100E50003F0008900C98406848F2A061C0F2010180
:100E6000884204D8FFE70B98013007900EE00B98FA
:100E70004FF49671484344F6D351C1F26201A0FB8E
:100E80000101012000EB91100790FFE708980799F6
:100E900008430C99096808620C980068C0694CF610
:100EA000FF71884306900C98406848F2A061C0F238
:100EB000010188421FD8FFE70A9801380C99496858
:100EC0004900B0FBF1F001306FF31F30032803D865
:100ED000FFE7042005900BE00A9801380C99496857
:100EE0004900B0FBF1F001306FF31F300590FFE7D0
:100EF000059804904CE00C98806868B9FFE70A9860
:100F000001380C99496801EB4101B0FBF1F0013067
:100F10006FF31F3003900DE00A9801380C9949686F
:100F200019225143B0FBF1F00130042161F31F306D
:100F30000390FFE70398000518B9FFE7012002902E
:100F400023E00C98806868B9FFE70A9801380C998B
:100F5000496801EB4101B0FBF1F001306FF31F3044
:100F600001900DE00A9801380C9949681922514303
:100F7000B0FBF1F00130042161F31F300190FFE775
:100F8000019840F400400290FFE702980490FFE7C8
:100F90000698049908430C990968C8610C98006880
:100FA000006820F0C0000C9B1968DA691B6A1A43BC
:100FB000104308600C980068806848F2FF3188434D
:100FC0000C9A1168D36812691A43104388600C9810
:100FD0000068C06820F0FF000C9B19685A699B6983
:100FE0001A431043C8600C980168086840F001007B
:100FF00008600C99002008640C9A202182F83D10AA
:101000000C9908630C9981F83E008DF83700FFE7D2
:101010009DF837000EB080BD80B58CB00A90ADF859
:10102000261008920793FFF79FFE06900020059078
:101030000A9890F83D00202840F02D81FFE70A989B
:1010400006996A4611600221C0F21001012219239B
:1010500001F0D2FD20B1FFE702208DF82F001EE144
:10106000FFE70A9890F83C00012804D1FFE702202E
:101070008DF82F0013E10A99012081F83C00FFE769
:10108000FFE70A980068006800F00100012807D017
:10109000FFE70A980168086840F001000860FFE770
:1010A0000A980168086820F4006008600A99242002
:1010B00081F83D000A99002008640A990020CFF6C3
:1010C000FF70C862FFE70A980168086840F4807002
:1010D00008600A98079B06996A4611604FF0011153
:1010E000002201F089FD80B1FFE70A9800680068DE
:1010F000C005002805D5FFE70A994FF40070086481
:10110000FFE703208DF82F00C9E0BDF8260000F0AE
:10111000FE000A9909680861FFF726FE06900A9802
:1011200000684069C0F340008DF813000A98006819
:101130004069C0F380208DF81200FFE70A9890F80C
:101140003D100020A02902900DD0FFE79DF813105C
:101150000020029039B9FFE79DF81200B0FA80F044
:1011600040090290FFE70298C007F8B1FFE7FFF7D8
:10117000FBFD0699401A0799884203D8FFE70798B4
:1011800028B9FFE70A99A02081F83D00FFE70A98F7
:1011900000684069C0F340008DF813000A980068A9
:1011A0004069C0F380208DF81200C7E70A9920201B
:1011B00081F83D000A980068406900F002010120B2
:1011C000B0EB510F32D1FFE70A980168086840F48C
:1011D00000700860FFE7002003900A9800684069EB
:1011E00003900A980068806903900398FFE70A98C3
:1011F00006996A4611600221C0F2100101221923EA
:1012000001F0FAFC20B1FFE701208DF82F0046E045
:101210000A99202081F83D00FFE70A99002081F813
:101220003C00FFE700208DF82F0038E00A980168A5
:10123000086840F4007008600A9801686FF48060E4
:1012400048610A9806996A4611600221C0F21001AD
:101250000122192301F0D0FC20B1FFE701208DF815
:101260002F001CE0FFE7059801300590FFE7059887
:1012700008998842FFF427AFFFE70A99202081F8F8
:101280003D00FFE70A99002081F83C00FFE70120BC
:101290008DF82F0003E002208DF82F00FFE79DF866
:1012A0002F000CB080BD000010B58CB084461098A3
:1012B0000F98DDF838E0CDF828C0ADF82610ADF86D
:1012C0002420ADF82230ADF82000FFF74DFD079047
:1012D0000A9890F83D00202840F00282FFE70A9823
:1012E00007996A4611600221C0F2100101221923F8
:1012F00001F082FC20B1FFE702208DF82F00F3E11E
:10130000FFE70A9890F83C00012804D1FFE702208B
:101310008DF82F00E8E10A99012081F83C00FFE7F1
:10132000FFE70A980068006800F00100012807D074
:10133000FFE70A980168086840F001000860FFE7CD
:101340000A980168086820F4006008600A99222061
:1013500081F83D000A99402081F83E000A9900205A
:1013600008640E980A994862BDF820000A994885D9
:101370000A98408D0A9908850A990020CFF6FF70D7
:10138000C8620A98BDF82610BDF82420BDF82230A6
:10139000DDF840C0079CEE46CEF80440CEF800C011
:1013A00001F044FA20B1FFE701208DF82F009BE106
:1013B0000A98008DA0B9FFE7FFE7002006900A9881
:1013C0000068406906900A9800688069069006984F
:1013D000FFE70A980168086840F4007008604DE073
:1013E0000A98008D01281AD1FFE70A980168086859
:1013F00020F480600860FFE7002005900A980068EC
:10140000406905900A980068806905900598FFE793
:101410000A980168086840F4007008602DE00A9896
:10142000008D02281AD1FFE70A980168086820F4A5
:10143000806008600A980168086840F400600860ED
:10144000FFE7002004900A980068406904900A9819
:101450000068806904900498FFE70DE0FFE7002032
:1014600003900A980068406903900A9800688069B0
:1014700003900398FFE7FFE7FFE7FFE7FFE70A981E
:10148000008D002800F01A81FFE70A98008D0328DC
:1014900000F2CC80FFE70A98008D01281ED1FFE7FB
:1014A0000A981099079A01F0D5FC20B1FFE70120B6
:1014B0008DF82F0018E10A98006800690A99496AB6
:1014C00008700A99486A013048620A99088D013803
:1014D00008850A99488D01384885A6E00A98008D4C
:1014E00002283CD1FFE70A98109B07996A461160D1
:1014F0000421C0F20101002201F07EFB20B1FFE7D0
:1015000001208DF82F00EFE00A980168086840F488
:10151000007008600A98006800690A99496A0870B2
:101520000A99486A013048620A99088D013808858D
:101530000A99488D013848850A98006800690A9917
:10154000496A08700A99486A013048620A99088D08
:10155000013808850A99488D0138488564E00A9861
:10156000109B07996A4611600421C0F20101002214
:1015700001F042FB20B1FFE701208DF82F00B3E01E
:101580000A980168086820F4806008600A9800687A
:1015900000690A99496A08700A99486A01304862E4
:1015A0000A99088D013808850A99488D01384885BF
:1015B0000A98109B07996A4611600421C0F2010144
:1015C000002201F019FB20B1FFE701208DF82F0068
:1015D0008AE00A980168086840F4007008600A9878
:1015E000006800690A99496A08700A99486A0130D6
:1015F00048620A99088D013808850A99488D013892
:1016000048850A98006800690A99496A08700A9929
:10161000486A013048620A99088D013808850A999C
:10162000488D01384885FFE7FFE746E00A981099A2
:10163000079A01F00FFC20B1FFE701208DF82F0081
:1016400052E00A98006800690A99496A08700A9984
:10165000486A013048620A99088D013808850A995C
:10166000488D013848850A980068406900F00401F7
:101670000120B0EB910F1FD1FFE70A98008D0328DE
:1016800007D1FFE70A980168086820F480600860C5
:10169000FFE70A98006800690A99496A08700A9980
:1016A000486A013048620A99088D013808850A990C
:1016B000488D01384885FFE7FFE7E0E60A992020DA
:1016C00081F83D000A99002081F83E00FFE70A9961
:1016D000002081F83C00FFE700208DF82F0003E098
:1016E00002208DF82F00FFE79DF82F000CB010BDF1
:1016F00010B588B084460C980B98DDF828E0CDF83A
:1017000018C0ADF81610ADF81420ADF81230ADF8D1
:101710001000FFF729FB0390069890F83D00202861
:1017200040F0E880FFE7069803996A4611600221BD
:10173000C0F210010122192301F05EFA20B1FFE787
:1017400002208DF81F00D9E0FFE7069890F83C00D2
:10175000012804D1FFE702208DF81F00CEE0069992
:10176000012081F83C00FFE7FFE706980068006869
:1017700000F00100012807D0FFE70698016808681B
:1017800040F001000860FFE706980168086820F44F
:10179000006008600699212081F83D0006994020EC
:1017A00081F83E000699002008640A98069948626C
:1017B000BDF81000069948850698408D0699088561
:1017C00006990020CFF6FF70C8620698BDF8161083
:1017D000BDF81420BDF81230DDF830C0039CEE4691
:1017E000CEF80440CEF800C001F012F920B1FFE7B6
:1017F00001208DF81F0081E0FFE70698008D00288A
:1018000049D0FFE706980C99039A01F091FB80B14B
:10181000FFE70698006C042807D1FFE706980168E7
:10182000086840F400700860FFE701208DF81F0091
:1018300064E006980168406A007808610699486A81
:10184000013048620699088D013808850699488D4F
:101850000138488506980068406900F004010120BD
:10186000B0EB910F16D1FFE70698008D90B1FFE71E
:1018700006980168406A007808610699486A013054
:1018800048620699088D013808850699488D013807
:101890004885FFE7B1E706980C99039A01F056F9DD
:1018A00080B1FFE70698006C042807D1FFE706988F
:1018B0000168086840F400700860FFE701208DF8B7
:1018C0001F001BE006980168086840F4007008607B
:1018D0000699202081F83D000699002081F83E00FD
:1018E000FFE70699002081F83C00FFE700208DF813
:1018F0001F0003E002208DF81F00FFE79DF81F0086
:1019000008B010BD80B588B0079000200690059003
:101910000490039002900798006845F20041C4F2D9
:101920000001884235D1FFE7FFE70020019043F630
:101930003000C4F20200016841F002010160006859
:1019400000F0020001900198FFE74FF44070029010
:10195000122003900020049003200590042006909C
:1019600040F20040C4F2020002A9FFF733F8FFE79B
:101970000020009043F64000C4F20200016841F4E8
:1019800000110160006800F4001000900098FFE76B
:10199000FFE708B080BD000040F20400C2F2000082
:1019A000027840F2EC01C2F20001086810440860BD
:1019B0007047000080B582B043F60041C4F20201D6
:1019C000086840F400700860086840F480600860AF
:1019D000086840F480700860032000F085F800205B
:1019E000019000F005F800F03BF8019802B080BDCE
:1019F00080B582B0009040F20000C2F200000068A2
:101A000040F20401C2F200010A784FF47A71B1FB8E
:101A1000F2F1B0FBF1F000F09FFD20B1FFE70120F3
:101A20008DF8070018E000980F280DD8FFE70099FF
:101A30004FF0FF30002200F03DF8009840F208011E
:101A4000C2F20001086003E001208DF8070003E006
:101A500000208DF80700FFE79DF8070002B080BD69
:101A600080B582B0FFE70020019043F64400C4F245
:101A70000200016841F480410160006800F4804088
:101A800001900198FFE7FFE70020009043F6400037
:101A9000C4F20200016841F080510160006800F06A
:101AA000805000900098FFE7072000F01DF802B07A
:101AB00080BD000080B586B08DF8170004910392B8
:101AC0000020029001F082FD02909DF91700019024
:101AD00002980499039A01F053FB0146019801F022
:101AE0007DFD06B080BD000080B582B001900198F8
:101AF00001F096FD02B080BD80B584B002900191E6
:101B0000029820B9FFE701208DF80F0021E101982C
:101B100043F60041C4F20201096801F0070188425E
:101B200012D9FFE7019943F60040C4F202000170A8
:101B3000006800F007000199884204D0FFE7012007
:101B40008DF80F0005E1FFE7029800788007002874
:101B50002AD5FFE7029800784007002809D5FFE75B
:101B600043F60801C4F20201086840F4E05008603E
:101B7000FFE7029800780007002809D5FFE743F641
:101B80000801C4F20201086840F460400860FFE701
:101B900043F60801C4F20201086820F0F000029A3E
:101BA000926810430860FFE702980078C007002899
:101BB0006ED0FFE702984068012811D1FFE743F695
:101BC0000000C4F20200006800F400310020B0EB15
:101BD000514F04D1FFE701208DF80F00B9E02CE050
:101BE00002984068022805D0FFE702984068032861
:101BF00011D1FFE743F60000C4F20200006800F0D4
:101C000000710020B0EB516F04D1FFE701208DF887
:101C10000F009EE010E043F60000C4F202000068EE
:101C200000F002010020B0EB510F04D1FFE70120CA
:101C30008DF80F008DE0FFE7FFE743F60801C4F2DF
:101C40000201086820F00300029A526810430860FD
:101C5000FFF78AF80090FFE743F60800C4F202009D
:101C6000006800F00C0002994968B0EB810F0ED0BB
:101C7000FFE7FFF779F80099401A41F2893188426D
:101C800004D3FFE703208DF80F0062E0E4E7FFE7ED
:101C9000019843F60041C4F20201096801F007010E
:101CA000884212D2FFE7019943F60040C4F20200D5
:101CB0000170006800F007000199884204D0FFE736
:101CC00001208DF80F0044E0FFE7029800784007FC
:101CD00000280CD5FFE743F60801C4F202010868AA
:101CE00020F4E050029AD26810430860FFE702989F
:101CF0000078000700280DD5FFE743F60801C4F27D
:101D00000201086820F46040029A126940EAC200A9
:101D10000860FFE700F04CF843F60801C4F2020146
:101D20000968C9B20A0945F24C31C0F60001895C64
:101D3000C84040F20001C2F20001086040F2080011
:101D4000C2F200000068FFF753FE00208DF80F007C
:101D5000FFE79DF80F0004B080BD000040F20000D6
:101D6000C2F200000068704780B5FFF7F7FF43F646
:101D70000801C4F202010968C1F3822245F25C3114
:101D8000C0F60001895CC84080BD000080B5FFF747
:101D9000E5FF43F60801C4F20201096889B24A0B63
:101DA00045F25C31C0F60001895CC84080BD00008E
:101DB00080B586B00020059004900390029043F611
:101DC0000800C4F20200006800F00C000146019116
:101DD00040B1FFE7019804280AD0FFE701980828DE
:101DE0000CD04FE042F20040C0F2F40002904FE00D
:101DF00041F20020C0F27A00029049E043F604006C
:101E0000C4F20200016801F03F0105910068400240
:101E1000002813D5FFE743F60400C4F2020000686F
:101E2000C0F3881041F20021C0F27A01A0FB010149
:101E3000059A0023FEF7CAF9049012E043F6040065
:101E4000C4F202000068C0F3881042F20041C0F200
:101E5000F401A0FB0101059A0023FEF7B7F90490F5
:101E6000FFE743F60400C4F20200006800F44031CA
:101E7000022000EBD130039004980399B0FBF1F0FD
:101E8000029005E042F20040C0F2F4000290FFE749
:101E9000029806B080BD000080B586B0049004981A
:101EA00020B9FFE701208DF8170050E3049800786F
:101EB000C007002800F0A580FFE743F60800C4F241
:101EC0000200006800F00C00042813D0FFE743F67E
:101ED0000800C4F20200006800F00C0008281ED1BF
:101EE000FFE743F60400C4F2020000684002002845
:101EF00015D5FFE743F60000C4F20200006800F4C5
:101F000000310020B0EB514F08D0FFE70498406843
:101F100020B9FFE701208DF8170018E370E0FFE714
:101F200004984068B0F5803F09D1FFE743F600010F
:101F3000C4F20201086840F48030086020E0049890
:101F40004068B0F5A02F0DD1FFE743F60001C4F2C1
:101F50000201086840F480200860086840F480307E
:101F600008600CE043F60001C4F20201086820F4A6
:101F700080300860086820F480200860FFE7FFE7F1
:101F8000FFE704984068E8B1FFE7FEF7EDFE039035
:101F9000FFE743F60000C4F20200006800F40031DD
:101FA0000020B0EB514F0CD1FFE7FEF7DDFE0399A7
:101FB000401A652804D3FFE703208DF81700C6E216
:101FC000E7E71CE0FEF7D0FE0390FFE743F60000D2
:101FD000C4F20200006800F400310020B0EB514F61
:101FE0000CD0FFE7FEF7C0FE0399401A652804D322
:101FF000FFE703208DF81700A9E2E7E7FFE7FFE717
:10200000FFE7049800788007002840F19680FFE7FA
:1020100043F60800C4F20200006810F00C0F13D061
:10202000FFE743F60800C4F20200006800F00C006D
:1020300008282CD1FFE743F60400C4F20200006830
:102040004002002823D4FFE743F60000C4F2020058
:10205000006800F002010020B0EB510F09D0FFE74B
:102060000498C068012804D0FFE701208DF817000C
:102070006DE243F60001C4F20201086820F0F800A6
:10208000049A126940EAC2000860FFE754E004982D
:10209000C06870B3FFE70021C4F247210120086047
:1020A000FEF762FE0390FFE743F60000C4F2020071
:1020B000006800F002010020B0EB510F0CD1FFE7E7
:1020C000FEF752FE0399401A032804D3FFE70320CA
:1020D0008DF817003BE2E7E743F60001C4F2020186
:1020E000086820F0F800049A126940EAC20008600B
:1020F00021E00021C4F2472100200860FEF734FEF1
:102100000390FFE743F60000C4F20200006800F00D
:1021100002010020B0EB510F0CD0FFE7FEF724FEC8
:102120000399401A032804D3FFE703208DF8170012
:102130000DE2E7E7FFE7FFE7FFE704980078000715
:1021400000284BD5FFE70498406918B3FFE740F635
:102150008061C4F2472101200860FEF705FE03906C
:10216000FFE743F67400C4F20200006800F00201C9
:102170000020B0EB510F0CD1FFE7FEF7F5FD0399FE
:10218000401A032804D3FFE703208DF81700DEE18F
:10219000E7E722E040F68061C4F2472100200860B2
:1021A000FEF7E2FD0390FFE743F67400C4F202007D
:1021B000006800F002010020B0EB510F0CD0FFE7E7
:1021C000FEF7D2FD0399401A032804D3FFE703204A
:1021D0008DF81700BBE1E7E7FFE7FFE70498007819
:1021E0004007002840F1CE80FFE700208DF807006F
:1021F00043F64000C4F202000068C000002815D475
:10220000FFE7FFE70020009043F64000C4F2020021
:10221000016841F080510160006800F0805000903A
:102220000098FFE701208DF80700FFE747F2000064
:10223000C4F200000068C005002822D4FFE747F27E
:102240000001C4F20001086840F480700860FEF7E5
:102250008BFD0390FFE747F20000C4F20000006826
:10226000C00500280CD4FFE7FEF77EFD0399401A55
:10227000032804D3FFE703208DF8170067E1EAE79E
:10228000FFE7FFE704988068012809D1FFE743F6DC
:102290007001C4F20201086840F0010008601FE00C
:1022A0000498806805280DD1FFE743F67001C4F259
:1022B0000201086840F004000860086840F001006E
:1022C00008600CE043F67001C4F20201086820F0D7
:1022D00001000860086820F004000860FFE7FFE7DD
:1022E000FFE704988068F8B1FFE7FEF73DFD039033
:1022F000FFE743F67000C4F20200006800F002013C
:102300000020B0EB510F0ED1FFE7FEF72DFD039932
:10231000401A41F28931884204D3FFE703208DF847
:10232000170014E1E5E71EE0FEF71EFD0390FFE74E
:1023300043F67000C4F20200006800F002010020C1
:10234000B0EB510F0ED0FFE7FEF70EFD0399401AD8
:1023500041F28931884204D3FFE703208DF817004A
:10236000F5E0E5E7FFE79DF80700012809D1FFE761
:1023700043F64001C4F20201086820F08050086072
:10238000FFE7FFE704988069002800F0DC80FFE7A2
:1023900043F60800C4F20200006800F00C000828B0
:1023A00000F08580FFE70498806902285CD1FFE790
:1023B0006021C4F2472100200860FEF7D5FC03909D
:1023C000FFE743F60000C4F20200006800F000716D
:1023D0000020B0EB516F0CD0FFE7FEF7C5FC03996E
:1023E000401A032804D3FFE703208DF81700AEE05E
:1023F000E7E70499C869D1F820C04B6A8A6A40EAC5
:102400000C0040EA8310D2034FF6FF739A43A2F503
:1024100080321043C96A40EA016043F60401C4F205
:10242000020108606021C4F2472101200860FEF724
:102430009BFC0390FFE743F60000C4F20200006833
:1024400000F000710020B0EB516F0CD1FFE7FEF7F8
:102450008BFC0399401A032804D3FFE703208DF86F
:10246000170074E0E7E721E06021C4F24721002073
:102470000860FEF779FC0390FFE743F60000C4F222
:102480000200006800F000710020B0EB516F0CD02A
:10249000FFE7FEF769FC0399401A032804D3FFE71E
:1024A00003208DF8170052E0E7E7FFE74AE00498C1
:1024B0008069012804D1FFE701208DF8170046E06C
:1024C00043F60400C4F20200006802900498806998
:1024D000012831D0FFE7029800F480000499C9690F
:1024E000884229D1FFE7029800F03F000499096A69
:1024F000884221D1FFE7029847F6C071084004994D
:10250000496AB0EB811F17D1FFE7029800F4403011
:102510000499896AC9034FF6FF729143A1F580318E
:10252000884209D1FFE7029800F070600499C96AF7
:10253000B0EB016F04D0FFE701208DF8170006E033
:10254000FFE7FFE7FFE700208DF81700FFE79DF8A2
:10255000170006B080BD000080B582B001900198E0
:1025600000F048FE02B080BD80B582B000900098B7
:1025700020B9FFE701208DF8070040E0009880694E
:1025800008B1FFE700E0FFE7009890F8410040B98C
:10259000FFE70099002081F84000009800F034F82F
:1025A000FFE70099242081F8410000980168C8687D
:1025B00020F40050C860009800F0FAFE009801680E
:1025C000086920F49040086100980168486920F08B
:1025D0002A00486100980168C86840F40050C8604B
:1025E000009900204864009A202182F84110009A46
:1025F00082F84210009948638DF80700FFE79DF8C4
:10260000070002B080BD000080B588B007900020B0
:10261000069005900490039002900798006844F299
:102620000041C4F20001884232D1FFE7FFE70020F9
:10263000019043F64000C4F20200016841F4003109
:102640000160006800F4003001900198FFE7FFE7A7
:102650000020009043F63000C4F20200016841F00F
:1026600001010160006800F0010000900098FFE7A0
:102670000C20029002200390002004900590072077
:1026800006900020C4F2020002A9FEF7A3F9FFE7BA
:1026900008B080BD80B58AB008900791ADF81A20C7
:1026A000059300200290089890F84100202840F0FF
:1026B0008180FFE7079820B1FFE7BDF81A0020B935
:1026C000FFE701208DF8270078E008990020486492
:1026D0000899212081F84100FEF746FB0290BDF8E1
:1026E0001A0008998884BDF81A000899C8840898C7
:1026F0008068B0F5805F09D1FFE70898006928B9C4
:10270000FFE7002004900798039004E007980490E6
:1027100000200390FFE7FFE70898C08C78B3FFE73D
:102720000898029B05996A4611608021002200F0FA
:10273000DDFE40B1FFE70899202081F84100032029
:102740008DF827003AE0049858B9FFE7039800880D
:102750006FF35F200899096848600398023003907E
:1027600008E00498007808990968486004980130E6
:102770000490FFE70899C88C0138C884CCE7089812
:10278000029B05996A4611604021002200F0AEFECE
:1027900040B1FFE70899202081F8410003208DF81F
:1027A00027000BE00899202081F8410000208DF8D7
:1027B000270003E002208DF82700FFE79DF827009F
:1027C0000AB080BDFFE7FEE782B000900098006885
:1027D000406900F480610120B0EB912F1ED1FFE72A
:1027E000009801686FF480604861009900200863D8
:1027F000009A202182F83D10009981F83E0000994E
:10280000086C40F004000864FFE70099002081F89C
:102810003C00FFE701208DF8070003E000208DF861
:102820000700FFE79DF8070002B0704780B586B04B
:10283000DDF824C0DDF820C00490ADF80E10ADF82E
:102840000C20ADF80A3004980168086840F48060F4
:10285000086004980168086840F480700860049873
:10286000089B09996A4611604FF00111002200F09F
:10287000C3F980B1FFE7049800680068C00500282C
:1028800005D5FFE704994FF400700864FFE70320C3
:102890008DF81700B7E0BDF80E0000F0FE000499B7
:1028A000096808610498089A099B0221C0F2010195
:1028B00000F026FA20B1FFE701208DF81700A2E012
:1028C000FFE7002001900498006840690190049897
:1028D0000068806901900198FFE704980899099AB7
:1028E00000F026FB80B1FFE70498006C042807D1B4
:1028F000FFE704980168086840F400700860FFE78B
:1029000001208DF817007EE0BDF80A00012806D1ED
:10291000FFE79DF80C0004990968086121E09DF823
:102920000D0004990968086104980899099A00F053
:10293000FFFA80B1FFE70498006C042807D1FFE795
:1029400004980168086840F400700860FFE70120FF
:102950008DF8170057E09DF80C000499096808618C
:10296000FFE704980899099A00F0E2FA80B1FFE7BE
:102970000498006C042807D1FFE7049801680868F0
:1029800040F400700860FFE701208DF817003AE07E
:1029900004980168086840F4807008600498089BF7
:1029A00009996A4611604FF00111002200F024F9E4
:1029B00080B1FFE7049800680068C005002805D5CD
:1029C000FFE704994FF400700864FFE703208DF8D7
:1029D000170018E09DF80E0040F001000499096806
:1029E00008610498089A099B0221C0F2010100F0D5
:1029F00087F920B1FFE701208DF8170003E00020E0
:102A00008DF81700FFE79DF8170006B080BD0000A5
:102A100080B586B0DDF824C0DDF820C00490ADF8A4
:102A20000E10ADF80C20ADF80A3004980168086863
:102A300040F4807008600498089B09996A46116008
:102A40004FF00111002200F0D7F880B1FFE70498A1
:102A500000680068C005002805D5FFE704994FF419
:102A600000700864FFE703208DF8170069E0BDF8E7
:102A70000E0000F0FE000499096808610498089AA5
:102A8000099B0221C0F2010100F03AF920B1FFE7F1
:102A900001208DF8170054E0FFE700200190049812
:102AA000006840690190049800688069019001986D
:102AB000FFE704980899099A00F03AFA80B1FFE715
:102AC0000498006C042807D1FFE70498016808689F
:102AD00040F400700860FFE701208DF8170030E037
:102AE000BDF80A00012806D1FFE79DF80C00049903
:102AF0000968086121E09DF80D00049909680861E2
:102B000004980899099A00F013FA80B1FFE7049835
:102B1000006C042807D1FFE704980168086840F4B6
:102B200000700860FFE701208DF8170009E09DF8AC
:102B30000C00049909680861FFE700208DF8170070
:102B4000FFE79DF8170006B080BD000080B584B097
:102B5000029001910092FFE702980068406900F03E
:102B600004010020B0EB910F3ED1FFE70298FFF780
:102B70002BFE20B1FFE701208DF80F0038E001980F
:102B8000013080B3FFE7FEF7EFF80099401A019992
:102B9000884203D8FFE7019820BBFFE7029800684E
:102BA000406900F004010020B0EB910F19D1FFE75C
:102BB000029900200863029A202182F83D100299B0
:102BC00081F83E000299086C40F020000864FFE79D
:102BD0000299002081F83C00FFE701208DF80F00EA
:102BE00006E0FFE7FFE7B7E700208DF80F00FFE7FB
:102BF0009DF80F0004B080BD80B588B0DDF828C016
:102C0000069005918DF813200393FFE79DF81600B9
:102C100001280CD1FFE7069800684069BDF8141040
:102C20000840401AB0FA80F0400902900BE0069884
:102C300000688069BDF814100840401AB0FA80F0AE
:102C400040090290FFE702989DF8131088424FD187
:102C5000FFE703980130002849D0FFE7FEF784F82A
:102C60000A99401A0399884203D8FFE70398E8BB02
:102C7000FFE79DF8160001280CD1FFE706980068D1
:102C80004069BDF814100840401AB0FA80F04009BD
:102C900001900BE0069800688069BDF814100840A8
:102CA000401AB0FA80F040090190FFE701989DF8C2
:102CB0001310884219D1FFE7069900200863069A8D
:102CC000202182F83D10069981F83E000699086C93
:102CD00040F020000864FFE70699002081F83C00DE
:102CE000FFE701208DF81F0006E0FFE7FFE78DE713
:102CF00000208DF81F00FFE79DF81F0008B080BD81
:102D000080B588B00690059104920393FFE79DF883
:102D1000160001280CD1FFE7069800684069BDF84D
:102D200014100840401AB0FA80F0400902900BE0FD
:102D3000069800688069BDF814100840401AB0FA7F
:102D400080F040090290FFE7029800287AD1FFE75F
:102D500006980068406900F480610120B0EB912F73
:102D600024D1FFE706980168086840F40070086005
:102D7000069801686FF48060486106990020086336
:102D8000069A202182F83D10069981F83E000699A6
:102D9000086C40F004000864FFE70699002081F801
:102DA0003C00FFE701208DF81F004FE00498013040
:102DB000002846D0FFE7FDF7D7FF0399401A049992
:102DC000884203D8FFE70498D0BBFFE79DF81600C0
:102DD00001280CD1FFE7069800684069BDF814107F
:102DE0000840401AB0FA80F0400901900BE00698C4
:102DF00000688069BDF814100840401AB0FA80F0ED
:102E000040090190FFE70198C8B9FFE70699002043
:102E10000863069A202182F83D10069981F83E0049
:102E20000699086C40F020000864FFE7069900202E
:102E300081F83C00FFE701208DF81F0006E0FFE766
:102E4000FFE764E700208DF81F00FFE79DF81F00F3
:102E500008B080BD80B584B0029001910092FFE778
:102E600002980068406900F040010020B0EB911F1B
:102E700056D1FFE702980068406900F01001012078
:102E8000B0EB111F1CD1FFE7029801686FF0100032
:102E90004861029900200863029A202182F83D10BF
:102EA000029981F83E000299086C0864FFE70299D4
:102EB000002081F83C00FFE701208DF80F0033E08F
:102EC000FDF752FF0099401A0199884203D8FFE7A5
:102ED000019820BBFFE702980068406900F04001BC
:102EE0000020B0EB911F19D1FFE702990020086381
:102EF000029A202182F83D10029981F83E00029941
:102F0000086C40F020000864FFE70299002081F877
:102F10003C00FFE701208DF80F0005E0FFE79FE789
:102F200000208DF80F00FFE79DF80F0004B080BD72
:102F300080B584B0029001910092FFE7029800688A
:102F40004069C1B20020B0EBD11F3DD1FFE702982C
:102F5000FFF73AFC20B1FFE701208DF80F0037E0C2
:102F60000198013078B3FFE7FDF7FEFE0099401AA3
:102F70000199884203D8FFE7019818BBFFE7029840
:102F800000684069C1B20020B0EBD11F19D1FFE742
:102F9000029900200863029A202182F83D100299CC
:102FA00081F83E000299086C40F020000864FFE7B9
:102FB0000299002081F83C00FFE701208DF80F0006
:102FC00006E0FFE7FFE7B9E700208DF80F00FFE715
:102FD0009DF80F0004B080BD40F21001C2F2000164
:102FE00040F6E500C0F60000086340F61500C0F6A4
:102FF00000004863762081F8290040F66910C0F689
:10300000000088630020704780B58EB000200D90CE
:103010000C900B900A900990FFE70020089043F66F
:103020003000C4F20200016841F004010160006850
:1030300000F0040008900898FFE7FFE700200790E1
:1030400043F63000C4F20200016841F080010160E3
:10305000006800F0800007900798FFE7FFE7002076
:10306000069043F63000C4F20200016841F001010D
:103070000160006800F0010006900698FFE7FFE796
:103080000020059043F63000C4F20200016841F0D0
:1030900002010160006800F0020005900598FFE75A
:1030A0000020C4F20200039020210191002202922C
:1030B000FDF742FE02984FF4005109914FF40411BC
:1030C0000A910B9040F60000C4F2020009A9049195
:1030D000FDF780FC019B029A039804990993012350
:1030E0000A930B920C92FDF775FC0EB080BD0000A8
:1030F00080B582B040F24C00C2F20000019045F26F
:103100000041C4F20001016048F2A061C0F2010177
:10311000416000218160C1604FF4804202614161E1
:103120008161C1610162FDF725FE18B1FFE7FDF77E
:103130002BFCFFE702B080BD80B582B040F2A0005A
:10314000C2F20000019044F20041C4F200010160AB
:103150004FF4E131416000218160C16001610C22C6
:1031600042618161C161FFF7FFF918B1FFE7FDF727
:103170000BFCFFE702B080BDFFE7FEE7FFE7FEE7DD
:1031800088B0079006910592079800F00700049018
:103190000498C0F10700052803D3FFE7042001903D
:1031A00004E00498C0F107000190FFE70198039044
:1031B00004980430062803D8FFE70020009003E0BD
:1031C000049803380090FFE700980290069803994E
:1031D000012202FA01F101390840029B9840059949
:1031E0009A40013A1140084308B070477047000008
:1031F0007047000080B582B0009000980138B0F1AF
:10320000807F03D3FFE70120019019E00098013887
:103210004EF21401CEF2000108604FF0FF300F2192
:1032200000F0DCF94EF21801CEF200010020086037
:103230004EF21002CEF20002072111600190FFE76A
:10324000019802B080BD000080B5FEF7A5FB80BDEF
:1032500080B594B008A83021FCF7F0FF002007905B
:103260000690059004900390FFE70020029043F63B
:103270004000C4F20200016841F080510160006822
:1032800000F0805002900298FFE7FFE700200190D5
:1032900047F20000C4F200000168022262F38F319D
:1032A0000160006800F4404001900198FFE70221AE
:1032B000089101200B9010200C900E9100210F918D
:1032C00010904FF4A87011900420129007201390D2
:1032D00008A8FEF7E1FD18B1FFE7FDF755FBFFE792
:1032E0000F20039002210491002005904FF480529A
:1032F0000692079003A8FEF7FFFB18B1FFE7FDF762
:1033000043FBFFE714B080BD4EF68851CEF20001BA
:10331000086840F4700008607047000084B00390B3
:10332000FFE7FFE70398006850E8030F20F4907070
:103330000290FFE702990398026842E80310002810
:10334000F0D1FFE7FFE7FFE7FFE70398006850E8E9
:10335000050F20F001000190FFE701990398026832
:1033600042E805100028F0D1FFE7FFE70398006B63
:10337000012814D1FFE7FFE7FFE70398006850E852
:10338000030F20F010000090FFE7009903980268F7
:1033900042E803100028F0D1FFE7FFE7FFE70399B9
:1033A000202081F8420003990020086304B0704790
:1033B00080B586B0059005980068006920F44050FB
:1033C000059A1168D26810430861059988680B69ED
:1033D0004A69C96918431043084304900598006876
:1033E000C06849F20C61884304990843059909684B
:1033F000C86005980068406920F44070059A11681B
:103400009269104348610598006841F20001C4F2D6
:103410000101884209D0FFE70598006841F20041A8
:10342000C4F20101884204D1FFE7FEF7AFFC03902C
:1034300003E0FEF799FC0390FFE70598C069B0F53B
:10344000004F29D1FFE703981921A0FB0101059A3C
:103450001368029353685A00DB0FFCF7B7FE02991A
:10346000864648F21F53C5F2EB13AEFB0320420918
:1034700010014FF0640C02FB1CEC322202EBCC0278
:10348000A2FB0332F82303EA521300EB4300C2F31A
:1034900042121044886026E003981921A0FB010124
:1034A000059A1368019353689A009B0FFCF78EFEF0
:1034B0000199844648F21F52C5F2EB12ACFB023070
:1034C0004309642003FB10CC322000EB0C10A0FB5E
:1034D0000202F02000EA521000EB0310C2F3431284
:1034E00010448860FFE706B080BD000080B586B05C
:1034F000DDF820C0049003918DF80B200193FFE7C5
:1035000004980068006803990840401AB0FA80F0F7
:1035100040099DF80B1088424DD1FFE70898013013
:10352000002847D0FFE7FDF71FFC0199401A0899D2
:10353000884203D8FFE7089820B9FFE703208DF8F9
:1035400017003CE004980068C0684007002830D5A8
:10355000FFE7039880282CD0FFE70398402828D065
:10356000FFE704980068006800F008010120B0EB54
:10357000D10F1DD1FFE7FFE70020009004980068FD
:103580000068009004980068406800900098FFE789
:103590000498FFF7C3FE049908204864FFE70499E4
:1035A000002081F84000FFE701208DF8170006E0B9
:1035B000FFE7FFE7A4E700208DF81700FFE79DF87D
:1035C000170006B080BD0000FFE7FEE74EF60C5086
:1035D000CEF200000068C0F30220704782B08DF880
:1035E000070000919DF9070000280AD4FFE7009822
:1035F00000019DF907104EF20042CEF200028854FD
:103600000BE0009800019DF8071001F00F014EF645
:103610001452CEF200028854FFE702B07047000057
:1036200083B00290029800F0070000904EF60C5113
:10363000CEF200010868019001984FF6FF02104099
:1036400001900198009A40EA02200022C0F2FA524A
:10365000104301900198086003B0704780B584B0B2
:1036600003900020029040F2E802C2F200021068CB
:10367000406AA0F596300290039880031368D98BB6
:10368000A0EB0151B3F92000DDF808C000FB1C10CD
:1036900000F58040C01393F922100CFB01F1891250
:1036A00093F81CE00CFB0EFE4FF4004C0CEBEE2CE0
:1036B00001FB0CFC4FF4001101EBAC21B3F91A3003
:1036C000594301F500518913484302900298C113F0
:1036D0004943C9091268127E5143A0EB21100290A0
:1036E0000298B0F1FF3F03DCFFE70020019002E009
:1036F00002980190FFE7019802900298B0F1C85F2C
:1037000004DDFFE74FF0C850009002E002980090FF
:10371000FFE7009802900298001304B080BD0000FB
:1037200085B00390002002900190009040F2E801E3
:10373000C2F200010868426A40F20060CFF6FF70F2
:1037400000EB62000290029880104043C00A0A68B1
:10375000B2F91020504301900198029A0B68B3F916
:103760000E305A4300EB42000190019880100A6825
:10377000928900EB024001900868B0F90820B0F986
:103780000A00029B4FEAA30C0CFB0CFC4FEA5C3CCA
:1037900000FB0CF0C0105A4300EB62008014029052
:1037A000029800F500400968C9884843C013029098
:1037B0000398019900EB2130C0F5801040F63541A7
:1037C00048430090009800280ED4FFE7029838B1D3
:1037D000FFE7009840000299B0FBF1F0009002E092
:1037E0000020049032E00DE0029838B1FFE7009825
:1037F0000299B0FBF1F04000009002E0002004903C
:1038000024E0FFE740F2E802C2F200021068B0F9DB
:1038100016000099C9084943490B48430013029018
:10382000009880081168B1F91410484340130190C2
:1038300000980299019B19441268B2F912201144B0
:1038400000EB2110009000980490FFE7049805B069
:103850007047000084B00390002002900190009017
:103860000398C11040F2E800C2F200000268138819
:10387000A1EB4301B2F902205143C9120291039B0B
:1038800002681188C1EB23114943090BB2F90420E6
:103890005143891301910299019A114402685162BE
:1038A0000068406A00EB80008030001200900098B1
:1038B00004B070470000000080B59AB000200A9064
:1038C0008DF867001890179016901590149014A911
:1038D000043104911390129012A9043106911190B1
:1038E000109010A8043005904FF0FF300F90FFF7B4
:1038F00073FB40F21000C2F2000000F0F7F90F90E5
:103900000120009000F038FE024600980F99114403
:103910000F9100F0ABFB024600980F9911440F91F4
:1039200000F092FC024600980F9911440F9100F0AC
:1039300053FD02460A980F9911440F9100F020FFA1
:1039400001460F9808440F9016A8039000F096FACD
:1039500001460F9808440F9018A8019000F04AFB08
:1039600001460F9808440F9017A8029000F0B8FA8B
:1039700001460F9808440F900A20FDF709F80198B6
:103980000299039A00F0E8FA01460F9808440F9054
:103990001898FFF75FFF14901798FFF7C1FE129079
:1039A0001698FFF75BFE0499059A03460698109354
:1039B00000F0FCF901460F9808440F909DED150AA0
:1039C000B8EEC00A9FED461A8DED071A80EE010A87
:1039D0008DED0E0A9DED130AB8EE400A80EE010A45
:1039E0008DED0D0A9DED110AB8EE400A9FED3D2ABE
:1039F00080EE020A8DED0C0A9DED150AB8EEC00AA4
:103A000080EE010A10EE100AFCF7B2FD9DED071AD8
:103A100041EC100B8DED080B9DED0C0A30EE410AC8
:103A200010EE100AFCF7A4FD41EC100B51EC100B4A
:103A30009FED250B53EC102BFCF72BFD9DED081B88
:103A400041EC100B51EC110B53EC102BFCF708FC64
:103A500041EC100B51EC100BFCF79DFD0B900B98FB
:103A6000FCF786FD41EC100B9FED191B53EC112B5D
:103A700051EC100BFCF79BFC41EC100B51EC100BC4
:103A80009FED150B53EC102BFCF7EAFB41EC100BF0
:103A900051EC100BFCF77FFD0B909DED0E0ADDED58
:103AA0000D0A9DED0C1ADDED0B1A00F083FF0A984C
:103AB00000F062FD01460F9808440F900F981AB06D
:103AC00080BD00BF00BF00BF000000000000144028
:103AD000CDCCCCCCCCCCFC3F000000000000404062
:103AE0000000C8420000804480B58AB0FF208DF8F5
:103AF00026000020ADF8240008900790069005905D
:103B00000490039040F2E800C2F20000006820B97F
:103B1000FFE781208DF82700B0E040F2E800C2F214
:103B2000000002900068D0F834C090F82900882185
:103B300003AA01921A23E047019A014602988DF8E0
:103B400026109DF80C109DF80D3041EA0321036802
:103B500019809DF80E109DF80F3041EA032103688B
:103B600059809DF810109DF8113041EA0321036837
:103B700099809DF812109DF8133041EA03210368E3
:103B8000D9809DF814109DF8153041EA032103688F
:103B900019819DF816109DF8173041EA032103683A
:103BA00059819DF818109DF8193041EA03210368E6
:103BB00099819DF81A109DF81B3041EA0321036892
:103BC000D9819DF81C109DF81D3041EA032103683E
:103BD00019829DF81E109DF81F3041EA03210368E9
:103BE00059829DF820109DF8213041EA0321036895
:103BF00099829DF822109DF8233041EA0321036841
:103C0000D9829DF82510036819760068D0F834C071
:103C100090F82900E1210723E047029902469DF828
:103C2000260010448DF826009DF80C009DF80D200C
:103C300040EA02200A6850839DF80E000A68107757
:103C40009DF90F209DF8100000F00F0040EA0210CF
:103C50000A68D0839DF9110000019DF8102040EA08
:103C600012100A6810849DF81200096881F8220079
:103C7000FFE79DF826008DF82700FFE79DF9270054
:103C80000AB080BD80B584B00290FF208DF8070097
:103C900000208DF8060040F2E800C2F20000006843
:103CA00020B9FFE781208DF80F001BE040F2E8000B
:103CB000C2F200000068D0F834C090F82900F42166
:103CC0000DF106020123E0478DF807009DF806007C
:103CD00000F0030002990870FFE79DF807008DF8D7
:103CE0000F00FFE79DF90F0004B080BD80B582B0E2
:103CF0000190FF208DF8030000208DF802000520C0
:103D00008DF80100019840F2E801C2F2000108605C
:103D1000FFE79DF80100012824DBFFE740F2E800FF
:103D2000C2F200000068D0F834C090F82900D02119
:103D30000DF102020123E0478DF803009DF8020017
:103D4000602801D1FFE70DE09DF8010001388DF8F2
:103D5000010040F2E800C2F200000068816B01201F
:103D60008847D6E79DF8020040F2E801C2F2000160
:103D7000096881F828009DF801100020002908BF7B
:103D80004FF0FF308DF803009DF9030048B9FFE7BD
:103D9000FFF7AAFE01469DF8030008448DF80300D2
:103DA000FFE79DF9030002B080BD000080B588B038
:103DB000069005910492FF208DF80F0000200290DC
:103DC0000190009040F2E800C2F20000006820B9C3
:103DD000FFE781208DF81F001BE002A801A96A46B9
:103DE00000F0BAF88DF80F000198FFF733FD059940
:103DF00008600298FFF794FC069908600098FFF7A6
:103E00002DFC04990860FFE79DF80F008DF81F0056
:103E1000FFE79DF91F0008B080BD000080B584B0A9
:103E20008DF80E0002918DF80720FF208DF8060016
:103E300040F2E800C2F20000006820B9FFE78120EC
:103E40008DF80F0016E040F2E800C2F200000068B2
:103E5000D0F834C090F829009DF80E10029A9DF811
:103E60000730E0478DF80600FFE79DF806008DF863
:103E70000F00FFE79DF90F0004B080BD80B584B04E
:103E80000290FF208DF807000020ADF8040040F2FA
:103E9000E800C2F20000006820B9FFE781208DF839
:103EA0000F0019E040F2E800C2F200000068D0F80C
:103EB00034C090F82900FD2101AA0223E0478DF8C3
:103EC0000700BDF8040040BA02990860FFE79DF8BA
:103ED00007008DF80F00FFE79DF90F0004B080BDCB
:103EE00080B584B00290FF208DF8070000208DF887
:103EF0000600ADF8040040F2E800C2F200000068DD
:103F000020B9FFE781208DF80F0021E040F2E800A2
:103F1000C2F200000068D0F834C090F82900F72100
:103F200001AA0323E0478DF807009DF804009DF8DF
:103F300005209DF80610000340EA021040EA111027
:103F400002990860FFE79DF807008DF80F00FFE772
:103F50009DF90F0004B080BD80B588B00690059132
:103F60000492FF208DF80F0000200290019040F293
:103F7000E800C2F20000006820B9FFE781208DF858
:103F80001F0033E040F2E800C2F200000068D0F801
:103F900034C090F82900F72101AA0823E0478DF8E2
:103FA0000F009DF804009DF805209DF80610000301
:103FB00040EA021040EA1110069908609DF80700D7
:103FC0009DF808209DF80910000340EA021040EA1D
:103FD000111005990860BDF80A0040BA04990860FC
:103FE000FFE79DF80F008DF81F00FFE79DF91F0008
:103FF00008B080BD80B584B00290FF208DF8070026
:1040000000208DF80600ADF8040040F2E800C2F28E
:104010000000006820B9FFE781208DF80F0021E043
:1040200040F2E800C2F200000068D0F834C090F816
:104030002900FA2101AA0323E0478DF807009DF823
:1040400004009DF805209DF80610000340EA0210C8
:1040500040EA111002990860FFE79DF807008DF80B
:104060000F00FFE79DF90F0004B080BD80B58AB056
:104070008DF82600FF208DF8250000208DF8240003
:104080008DF823008DF822008DF8210040F2E80021
:10409000C2F20000006820B9FFE781208DF82700F8
:1040A000CDE040F2E800C2F20000006890F82D0078
:1040B0008DF824009DF8240000F0F8009DF82610EB
:1040C00001F0070108448DF824000DF12100FFF7ED
:1040D000D9FD8DF825009DF82100002842D0FFE78A
:1040E00000F020FB01469DF8250008448DF82500CE
:1040F00040F2E800C2F2000007900068816B0320E4
:1041000088470798006890F82F008DF82200F52066
:104110000DF122010122069200F000FC069A0146F0
:104120009DF8250008448DF82500F22009A900F02B
:10413000F5FB069A034607989DF8251019448DF85B
:104140002510006890F82E008DF82300F4200DF162
:10415000230100F0E3FB01469DF8250008448DF89B
:10416000250027E040F2E800C2F200000590006858
:10417000D0F830C090F82900F22109AA0123049355
:10418000E047049A034605989DF8251019448DF8D8
:104190002510006890F82E008DF82300F4200DF112
:1041A000230100F0BBFB01469DF8250008448DF873
:1041B0002500FFE79DF8260040F2E801C2F2000169
:1041C0000391096881F82C00F42009A901910122CA
:1041D0000292FFF723FE0199029A039B84469DF801
:1041E000250060448DF825009DF824001B6883F8A5
:1041F0002E00F220FFF712FE0199029A039B8446DB
:104200009DF8250060448DF825009DF824001B686A
:1042100083F82D00F520FFF701FE039902469DF873
:10422000250010448DF825009DF82400096881F8C8
:104230002F00FFE79DF825008DF82700FFE79DF987
:1042400027000AB080BD000080B588B08DF81E0040
:10425000FF208DF81D0000208DF81C008DF81B003C
:104260008DF81A008DF8190040F2E800C2F2000043
:10427000006820B9FFE781208DF81F00A8E040F218
:10428000E800C2F20000006890F82E008DF81C00D3
:104290009DF81C0000F0E3009DF81E1001F00701DE
:1042A00040EA81008DF81C000DF11B00FFF7EAFCCD
:1042B0008DF81D009DF81B00C8B3FFE700F032FA2F
:1042C00001469DF81D0008448DF81D0040F2E800ED
:1042D000C2F2000004900068816B032088470498B4
:1042E000006890F82F008DF81900F5200DF11901E4
:1042F0000122059200F012FB059A014604988DF800
:104300001D10006890F82D008DF81A00F2200DF1B4
:104310001A0100F003FB059A01469DF81D000844B0
:104320008DF81D00F42007A900F0F8FA0FE040F224
:10433000E800C2F200000068D0F830C090F8290010
:10434000F42107AA0123E0478DF81D00FFE79DF83F
:104350001E0040F2E801C2F200010391096881F8F1
:104360002B00F42007A9019101220292FFF756FDCC
:104370000199029A039B8DF81D009DF81C001B6893
:1043800083F82E00F220FFF749FD0199029A039B62
:1043900084469DF81D0060448DF81D009DF81C00AA
:1043A0001B6883F82D00F520FFF738FD03990246BE
:1043B0009DF81D0010448DF81D009DF81C00096833
:1043C00081F82F00FFE79DF81D008DF81F00FFE723
:1043D0009DF91F0008B080BD80B588B08DF81E0023
:1043E000FF208DF81D0000208DF81C008DF81B00AB
:1043F0008DF81A008DF8190040F2E800C2F20000B2
:10440000006820B9FFE781208DF81F00B0E040F27E
:10441000E800C2F20000006890F82E008DF81C0041
:104420009DF81C0000F01F009DF81E1040EA41108E
:104430008DF81C000DF11B00FFF724FC8DF81D000A
:104440009DF81B00002842D0FFE700F06BF9014601
:104450009DF81D0008448DF81D0040F2E800C2F2EE
:10446000000004900068816B03208847049800686E
:1044700090F82F008DF81900F5200DF11901012297
:10448000059200F04BFA059A034604989DF81D101A
:1044900019448DF81D10006890F82D008DF81A0051
:1044A000F2200DF11A0100F039FA059A01469DF843
:1044B0001D0008448DF81D00F42007A900F02EFA15
:1044C00001469DF81D0008448DF81D000FE040F2E4
:1044D000E800C2F200000068D0F830C090F829006F
:1044E000F42107AA0123E0478DF81D00FFE79DF89E
:1044F0001E0040F2E801C2F200010391096881F850
:104500002A00F42007A9019101220292FFF786FCFC
:104510000199029A039B8DF81D009DF81C001B68F1
:1045200083F82E00F220FFF779FC0199029A039B91
:1045300084469DF81D0060448DF81D009DF81C0008
:104540001B6883F82D00F520FFF768FC03990246ED
:104550009DF81D0010448DF81D009DF81C00096891
:1045600081F82F00FFE79DF81D008DF81F00FFE781
:104570009DF91F0008B080BD80B588B08DF81E0081
:10458000FF208DF81D0000208DF81C008DF81B0009
:104590008DF81A008DF819008DF8180040F2E80027
:1045A000C2F20000006820B9FFE781208DF81F00EB
:1045B000B3E09DF81E00032800F3A580FFE740F25A
:1045C000E800C2F20000006890F82E008DF81C0090
:1045D0009DF81C0000F0FC009DF81E1001F0030186
:1045E00008448DF81C000DF11B00FFF74BFB8DF804
:1045F0001D009DF81B0000283FD0FFE700F092F857
:1046000001469DF81D0008448DF81D0040F2E800A9
:10461000C2F2000004900068816B03208847049870
:10462000006890F82F008DF81900F5200DF11901A0
:104630000122059200F072F9059A014604988DF85E
:104640001D10006890F82D008DF81A00F2200DF171
:104650001A0100F063F9059A01469DF81D0008440F
:104660008DF81D00F42007A900F058F901469DF8C7
:104670001D0008448DF81D000FE040F2E800C2F272
:1046800000000068D0F830C090F82900F42107AA93
:104690000123E0478DF81D00FFE7F42006A90191F2
:1046A00001220292FFF7BAFB0199029A8DF81D00D0
:1046B0009DF8180040F2E803C2F2000303931B6860
:1046C00083F82E00F220FFF7A9FB0199029A039BC1
:1046D00084469DF81D0060448DF81D009DF818006B
:1046E0001B6883F82D00F520FFF798FB039902461D
:1046F0009DF81D0010448DF81D009DF818000968F4
:1047000081F82F0003E0FE208DF81D00FFE7FFE792
:104710009DF81D008DF81F00FFE79DF91F0008B0F0
:1047200080BD000080B582B0FF208DF80600B62065
:104730008DF8050040F2E800C2F20000006820B9E0
:10474000FFE781208DF8070015E040F2E800C2F293
:1047500000000068D0F830C090F82900E0210DF189
:1047600005020123E0478DF80600FFE79DF80600EB
:104770008DF80700FFE79DF9070002B080BD00003B
:1047800080B588B08DF81E00FF208DF81D00002038
:104790008DF81C008DF81B008DF81A008DF819009B
:1047A00040F2E800C2F20000006820B9FFE7812073
:1047B0008DF81F00AEE040F2E800C2F20000006891
:1047C00090F82F008DF81C009DF81C0000F01F00D1
:1047D0009DF81E1040EA41108DF81C000DF11A00E2
:1047E000FFF750FA8DF81D009DF81A00002842D0FE
:1047F000FFE7FFF797FF01469DF81D0008448DF87D
:104800001D0040F2E800C2F2000005900068816BD4
:1048100003208847F52007A90122049200F07EF8C2
:10482000049A034605989DF81D1019448DF81D1033
:10483000006890F82D008DF81900F2200DF1190193
:1048400000F06CF8049A034605989DF81D10194471
:104850008DF81D10006890F82E008DF81B00F420D4
:104860000DF11B0100F05AF801469DF81D000844A7
:104870008DF81D000FE040F2E800C2F20000006871
:10488000D0F830C090F82900F52107AA0123E047AD
:104890008DF81D00FFE7F42007A901910122029283
:1048A000FFF7BCFA0199029A03469DF81D001844CF
:1048B0008DF81D009DF81C0040F2E803C2F20003D1
:1048C00003931B6883F82E00F220FFF7A7FA0199E3
:1048D000029A039B84469DF81D0060448DF81D00DC
:1048E0009DF81C001B6883F82D00F520FFF796FA51
:1048F000039902469DF81D0010448DF81D009DF897
:104900001C00096881F82F00FFE79DF81D008DF855
:104910001F00FFE79DF91F0008B080BD80B584B07F
:104920008DF80E0002918DF80720FF208DF806000B
:1049300040F2E800C2F20000006820B9FFE78120E1
:104940008DF80F0016E040F2E800C2F200000068A7
:10495000D0F830C090F829009DF80E10029A9DF80A
:104960000730E0478DF80600FFE79DF806008DF858
:104970000F00FFE79DF90F0004B080BD80B586B041
:1049800000200590FDF716F8FEF762FCFEF73CFBF1
:10499000FEF7AEFBFEF7D0FB45F2AB30C0F60000F1
:1049A0000190FFE7FEF788FF4FF47A70FBF7F0FF06
:1049B000F8E7000080B5AAB08DED290ACDED280AF0
:1049C0008DED271ACDED261A2998FBF7D1FD41EC84
:1049D000100B8DED0A0B2898FBF7CAFD41EC100B6C
:1049E0008DED080B2798FBF7C3FD41EC100B8DED07
:1049F000060B2698FBF7BCFD9DED062B9DED081BD5
:104A00009DED0A0B41EC130B684680ED043B80EDF5
:104A1000022B80ED001B53EC102B45F26431C0F6E5
:104A200000010DA80C9000F00FF80C98FBF711FC9A
:104A30000C9982B240F2A000C2F200004FF0FF33A6
:104A4000FDF728FE2AB080BD0FB4084B10B504A9AD
:104A500002AA039800F0DEF8044602A9002000F044
:104A600070FC204610BC5DF814FB000043530008A6
:104A700002E008C8121F08C1002AFAD17047704727
:104A8000002001E001C1121F002AFBD17047000085
:104A90002DE9FF5F82B00021DDE90430020DDDF871
:104AA00040B0034318D044F61050A2F2FF32424304
:104AB0001514119801281FD0A5EB0B00401C5FEACC
:104AC000000A4FF000064E4FDFF83891B0465046CE
:104AD00015D5CAF1000413E0119801244AA3012856
:104AE00001D16FEA0B010298119AC0E90031C0E9C7
:104AF000024206B0BDE8F09FCBF10000DFE70446BC
:104B00000021404A491842EB0450CDE9001012E060
:104B1000E00707D032463B4640464946FBF747FC94
:104B20008046894632463B4610461946FBF73FFC15
:104B300006460F466410002CEAD1DDE90401DDE9E8
:104B40000023BAF1000F06DAFBF731FC42464B4670
:104B5000FBF72DFC05E0FBF79CFC42464B46FBF7C0
:104B600098FC04460E460022284BFBF723FE03D890
:104B70004FF0FF30014607E00022254B204631462A
:104B8000FBF76EFBFBF7FEFD102409E0002C0ADBAF
:104B90000A220023FBF71AFB039B30321A55641ECE
:104BA00050EA0102F2D1641C039AC4F111031444C7
:104BB000119A012A03D0012208430DD10AE00843CB
:104BC00004D000204FF0110B119072E7A3EB0B05FE
:104BD0006D1E0DE05B4504DD4FF0000205F101059F
:104BE00004E003DA4FF00002A5F10105002AECD041
:104BF00002981199C0E90231C0E9004579E7000047
:104C0000000014400000F03F300000000000F043BE
:104C10000000E03F2DE9FF4F95B09B4689460646D0
:104C200000250FE2252877D100242746F84A0121E4
:104C3000059400E0044316F8013F203B01FA03F01D
:104C40001042F7D130782A2811D06FF02F03307836
:104C5000A0F13002092A16D8059A44F0020402EBAA
:104C6000820203EB42021044761C0590EFE759F8EC
:104C7000042B0592002A03DA504244F400540590B4
:104C800044F00204761C30782E2816D116F8010F55
:104C900044F004042A280DD06FF02F023078A0F1E0
:104CA0003003092B09D807EB870302EB4303C7182E
:104CB000761CF3E759F8047B761C30786C280FD00B
:104CC00006DC4C2817D068280DD06A2814D104E0DF
:104CD000742810D07A280FD10DE044F400140AE0B3
:104CE00044F4801401E044F440147278824202D10A
:104CF00004F58014761C761C307866280BD013DC03
:104D0000582877D009DC002875D04528F6D04628E9
:104D1000F4D047281AD19DE118E0632835D06428E3
:104D200079D0652812D195E1702873D008DC672806
:104D3000F1D069286FD06E280DD06F2806D1B5E06C
:104D400073282CD0752875D0782874D05A461799B6
:104D500090476D1C75E1C4F30250022809D0032866
:104D60000DD0D9F8001004280DD00D6009F1040908
:104D700067E1D9F80010EA17C1E90052F6E7D9F85F
:104D800000100D80F2E70D70F0E719F8041B8DF8A4
:104D9000001000208DF80100EA46012003E059F8D8
:104DA00004AB4FF0FF3061074FF0000102D40DE07B
:104DB00008F101018846B9420FDA8045F8DB1AF89C
:104DC00008100029F4D108E008F101018846814269
:104DD000FADB1AF808100029F6D105985B46A0EB1B
:104DE000080721463846179A00F094FA284400EB49
:104DF000080507E04DE029E10DE01AF8010B5A46DD
:104E000017999047B8F10108F7D25B46214638461A
:104E1000179A13E142E00A220092C4F302524FF0C3
:104E2000000A022A08D059F804CB032A4FEAEC7191
:104E30000AD00DE029E02AE009F1070121F007027C
:104E4000F2E802C1914609E00FFA8CFC4FEAEC71DE
:104E5000042A03D14FFA8CFC4FEAEC71002907DADF
:104E60000A460021DCF1000C61EB02012D2202E078
:104E7000220504D52B228DF80420012203E0E2074D
:104E800001D02022F7E7904659E00A2102E01022E3
:104E90000DE010214FF0000A00910BE010224FF0BE
:104EA000000A44F004040827009203E008224FF0AF
:104EB000000A0092C4F30252022A05D059F804CB2A
:104EC0000021032A08D009E009F1070121F00702B7
:104ED000F2E802C1914605E01FFA8CFC042A01D1D8
:104EE0000CF0FF0C4FF00008220728D5702806D0E0
:104EF000009B83F0100353EA0A0305D00EE0402222
:104F00008DF80420012208E05CEA010206D030227C
:104F10008DF804208DF8050002229046009B83F056
:104F2000080353EA0A030AD15CEA010201D16207CD
:104F300005D530228DF804204FF001087F1E582837
:104F400004D034A003900EA802900DE036A0F9E73B
:104F500053466046009AFBF739F984460398825C11
:104F60000298401E029002705CEA0100F0D10298A3
:104F700006A9081A00F1200A600702D524F480343B
:104F800000E00127574502DDA7EB0A0000E0002002
:104F900000EB0A01009005984144401A0590E00397
:104FA00006D45B462146179A059800F0B3F90544EC
:104FB000002706E001A85A46C05D179990476D1C6E
:104FC0007F1C4745F6DBE0030CD55B462146179A6C
:104FD000059800F09FF9054404E030205A461799DF
:104FE00090476D1C0099481E00900029F5DC08E0F0
:104FF000029802995A460078491C029117999047E5
:105000006D1CBAF10001AAF1010AF1DC65E10000B2
:10501000092801003031323334353637383961628E
:105020006364656600000000303132333435363752
:1050300038394142434445460000000000F058F929
:105040000544761C307800287FF4ECAD19B0284672
:10505000BDE8F08F620700D4062709F1070222F0AD
:10506000070CFCE80223E14603F000485FEA080C65
:1050700002D00FF2702C0DE05FEA045C02D50FF253
:10508000682C07E05FEAC47C02D00FF2602C01E0DC
:10509000AFF2700C4FF0FF3823F00043CDF850C052
:1050A00065280CD006DC452809D046281DD04728A5
:1050B0003DD13DE0662818D067287ED138E0002138
:1050C000112F01DB112000E0781CCDE9000106A9B9
:1050D0000EA8FFF7DDFCDDE90F010E9A0391002118
:1050E000009207F1010A04914DE04FF00040009753
:1050F000CDE9011006A90EA8FFF7CAFCDDE90F02F1
:1051000003920E9B11990022DDF80CA000930492EB
:1051100011B9791C00EB010AB7EB0A0004D4C0F105
:10512000FF3007F1010A0490AAEB0700019044E068
:10513000012F00DA01270021112F01DD112000E0ED
:105140003846CDE9000106A90EA8FFF7A1FCDDE96C
:105150000F010E9A0391002104910092BA46210793
:105160000CD40399514500DA8A46BAF1010F05DDE6
:10517000009AAAF10101515C302908D0B84202DA44
:1051800010F1040F06DA0121CDE9011015E0AAF1B2
:105190000101E9E7002805DC049901440491AAEB28
:1051A000000102E0411C514500DD8A460499401A85
:1051B000401C01904FF000400290200704D4019859
:1051C000504501DBCDF8048000208DF84F00029897
:1051D0000DF14F07B0F1004F25D02B200E90029813
:1051E0004FF0020800280CDA404202902D200E9069
:1051F00007E00A210298FBF7EAF93031029007F83C
:10520000011DB8F10001A8F10108F2DC02980028A4
:10521000EFD1791E0E980870307800F0200040F031
:10522000450007F8020D12A8C01B00F107081498EA
:10523000007800B1012000EB0A01019801EBE07158
:1052400005984144401A401E0590E00306D45B4691
:105250002146179A059800F05DF8054414980078E7
:1052600018B15A46179990476D1CE00324D55B4648
:105270002146179A059800F04DF805441CE0049863
:10528000002807DBDDE90301884203DD0098405C6C
:10529000179901E0179930205A469047049805F174
:1052A0000105401C04900198401E019004D12E205D
:1052B0005A46179990476D1CBAF10001AAF1010AEC
:1052C000DDDC05E017F8010B5A46179990476D1C75
:1052D000B8F10001A8F10108F4DC5B462146179AF9
:1052E0000598ABE62D0000002B0000002000000018
:1052F0002DE9F041044600251E461746880404D4D3
:1053000005E039462020B0476D1C641EF9D52846BB
:10531000BDE8F0812DE9F041044600251E46904687
:10532000C80301D5302700E02027880404D505E014
:1053300041463846B0476D1C641EF9D52846BDE885
:10534000F0810A68531C0B60107070470000000069
:105350000000000001020304060708090000000025
:105360000102030454656D703A20252E66204465C1
:1053700067462C202050726573733A20252E3266C2
:1053800020696E48672C202048756D693A20252ECB
:105390006625252072482C202044657750743A20D9
:1053A000252E6620446567460D0A0048656C6C6FC3
:1053B00020776F726C640000D85300080000002052
:1053C00010000000704A0008E85300081000002098
:1053D000E0040000804A00080024F40001000000FE
:0853E0001000000000000000B5
:040000050800019559
:00000001FF
